:100000000C9463000C948B000C948B000C948B006C
:100010000C948B000C948B000C948B000C94CC04EF
:100020000C948B000C948B000C948B000C948B0024
:100030000C948B000C948B000C948B000C948B0014
:100040000C9482040C948B000C948B000C948B0009
:100050000C948B000C948B000C948B000C948B00F4
:100060000C948B000C948B000000000024002700EF
:100070002A000000000023002600290000000008DC
:10008000000201000003040700000000000000005F
:10009000010204081020408001020408102001021F
:1000A0000408102000000000250028002B00040494
:1000B0000404040404040202020202020303030310
:1000C000030302001D0611241FBECFEFD8E0DEBFE0
:1000D000CDBF11E0A0E0B1E0E6E2FDE002C0059096
:1000E0000D92A034B107D9F721E0A0E4B1E001C03E
:1000F0001D92A337B207E1F710E0C3E6D0E004C0D9
:100100002197FE010E948B06C236D107C9F70E94D3
:1001100028050C9491060C940000833081F028F49B
:10012000813099F08230A9F008958730A9F08830A5
:10013000C9F08430B1F4809180008F7D03C080913C
:1001400080008F7780938000089584B58F7784BD79
:10015000089584B58F7DFBCF8091B0008F77809319
:10016000B00008958091B0008F7DF9CFCF93DF93D9
:10017000282F30E0F901E458FF4F8491F901E0574E
:10018000FF4FD491F901E255FF4FC491CC23A1F068
:1001900081110E948D00EC2FF0E0EE0FFF1FEE5852
:1001A000FF4FA591B491EC91ED2381E090E009F42B
:1001B00080E0DF91CF91089580E090E0FACF1F9327
:1001C000CF93DF93282F30E0F901E458FF4F84915B
:1001D000F901E057FF4FD491F901E255FF4FC49167
:1001E000CC23A9F0162F81110E948D00EC2FF0E096
:1001F000EE0FFF1FEC55FF4FA591B4918FB7F89408
:10020000EC91111108C0D095DE23DC938FBFDF91F4
:10021000CF911F910895DE2BF8CFCF93DF9390E01D
:10022000FC01E057FF4F249182559F4FFC018491C0
:100230008823D1F090E0880F991FFC01E859FF4F07
:10024000A591B491FC01EC55FF4FC591D49161117A
:100250000EC09FB7F8948C91E22FE0958E238C937B
:100260002881E223E8839FBFDF91CF9108958FB764
:10027000F894EC91E22BEC938FBFF6CF8F929F9284
:10028000AF92BF92CF92DF92EF92FF920F931F93A4
:10029000CF938C0180910001883079F08F3F09F471
:1002A00051C0CF911F910F91FF90EF90DF90CF90B1
:1002B000BF90AF909F908F900895E2ECF0E0C491D2
:1002C000C7FDEFCF61E088E00E940D01CC2319F05B
:1002D000C23009F0E9C04801B12CA12C68E478EEE5
:1002E00081E090E0A50198010E945D0669017A0114
:1002F00081E0C81AD108E108F108CC2309F40FC144
:10030000C23009F08EC08FEFC816D104E104F104A9
:1003100009F00CF4C7C064E274EF80E090E0A5013E
:1003200098010E945D0669017A0181E0C81AD1082E
:10033000E108F10895E08091B100887F892B8093D6
:10034000B1008DC088E080930001E2ECF0E0C49140
:10035000CF3F09F4A6CFC13021F150F0C23009F4EB
:100360003EC0C7FD9ECF61E088E00E940D01B0CF86
:1003700014BC15BC84B5826084BD85B5816085BD23
:10038000E6EBF0E0E491F0E0EE0FFF1FEC55FF4FDD
:1003900085919491E8E9F0E0E491E0934E01C0E0AA
:1003A00091CF10928000109281008091810088602E
:1003B0008093810080918100816080938100E6EBD1
:1003C000F0E0E491F0E0EE0FFF1FEC55FF4F859158
:1003D0009491E8E9F0E0E491E0934D0173CF10923D
:1003E000B0001092B1008091B00082608093B000A4
:1003F0008091B10081608093B100E6EBF0E0E49180
:10040000F0E0EE0FFF1FEC55FF4F85919491909314
:100410004C0180934B01E8E9F0E0E491E0934A015C
:1004200051CF8FEFC816D104E104F104D9F1D4F112
:1004300062E17AE780E090E0A50194010E945D0608
:1004400069017A0181E0C81AD108E108F108C111F7
:1004500070C094E085B5887F892B85BDC0E0980188
:10046000220F331FA0E9B1E00E947C0628EE33E0A2
:1004700040E050E00E943B06C13079F1C23009F4FF
:100480003EC0C1110ECFC7BC209357013093580115
:100490004093590150935A0180916E00826080937D
:1004A0006E00FFCE94E047CF980150E040E060E05E
:1004B00072E18AE790E00E945D0669017A0181E0BD
:1004C000C81AD108E108F108C13049F680918100CD
:1004D000887F816080938100C2CFD0928900C092D2
:1004E0008800209353013093540140935501509359
:1004F000560180916F00826080936F00D2CEC092CF
:10050000B30020934F013093500140935101509319
:10051000520180917000826080937000C2CE93E09F
:100520008FEFC816D104E104F10411F00CF080CF74
:1005300091CF96E000CF3FB7F8948091460190911B
:100540004701A0914801B091490126B5A89B05C07B
:100550002F3F19F00196A11DB11D3FBFBA2FA92F42
:10056000982F8827BC01CD01620F711D811D911D3F
:1005700042E0660F771F881F991F4A95D1F70895AB
:100580009091000189130BC0E2ECF0E0E4919FEF41
:1005900090930001E13049F028F0E23061F060E032
:1005A0000C94DF0010926E00FACF90916F009D7F47
:1005B00090936F00F4CF909170009D7F90937000A6
:1005C00091E09093B0009091B100987F94609093E7
:1005D000B1001092B300E3CFAF92BF92CF92DF92FF
:1005E000EF92FF920F931F93CF93DF936C017B01E8
:1005F0008B01040F151FEB015E01AE18BF08C01779
:10060000D10759F06991D601ED91FC910190F081EB
:10061000E02DC6010995892B79F7C501DF91CF91AE
:100620001F910F91FF90EF90DF90CF90BF90AF9010
:100630000895089590E080E00895FC010190002065
:10064000E9F73197AF01481B590BBC018BE591E0ED
:100650000C94EC02CF93DF93EC0160E08E810E945A
:10066000DF0061E08E810E94DF0060E08E810E94E9
:10067000DF008BE891E00197F1F7DF91CF910895CA
:10068000CF92DF92EF92FF920F931F93CF93DF935E
:100690006C017C0187E0E80EF11CD0E0C0E0062F81
:1006A00010E0B8010C2E02C0759567950A94E2F728
:1006B0006170F70181917F010E94DF002196C430B3
:1006C000D10579F7C601DF91CF911F910F91FF906E
:1006D000EF90DF90CF900C942A03CF92DF92EF92AD
:1006E000FF920F931F93CF93DF93EC01F62E642FAD
:1006F0008C810E94DF008D818F3F19F060E00E94A5
:10070000DF000F2D10E08F8584FF25C06E0187E08C
:10071000C80ED11CF12CE12CB8010E2C02C075952D
:1007200067950A94E2F76170F60181916F010E946A
:10073000DF00FFEFEF1AFF0A88E0E816F10461F727
:10074000CE01DF91CF911F910F91FF90EF90DF903D
:10075000CF900C942A03B80184E0759567958A952B
:10076000E1F7CE010E9440036F2DCE01DF91CF91C2
:100770001F910F91FF90EF90DF90CF900C9440036A
:1007800040E0682F8BE591E00C946D0381E00E94BE
:10079000C0038BE39FE10197F1F70895CF93DF93B7
:1007A000823029F490916A01986090936A01809355
:1007B0006E0110926F0180E48093700180E180935C
:1007C000710180E58093720161E080915F010E9478
:1007D0000D01809160018F3F19F061E00E940D01D1
:1007E00061E0809161010E940D01CBE5D1E09E01A5
:1007F0002B55314080916A0184FD0BC084E090E06C
:1008000021962817390744F461E08E810E940D017A
:10081000EECF88E090E0F4CF8BE39DE00197F1F715
:1008200060E080915F010E94DF0060E080916101E3
:100830000E94DF00809160018F3F19F060E00E940C
:10084000DF0080916A0184FD34C063E08BE591E0B4
:100850000E944003CBE4D6E4CE010197F1F763E0B8
:100860008BE591E00E9440032197F1F763E08BE56F
:1008700091E00E94400383E592E00197F1F762E086
:100880008BE591E00E94400380916A0180620E94A2
:10089000C00384E080936B018CE00E94C0030E943F
:1008A000C60382E080936C0186E0DF91CF910C94C7
:1008B000C00380620E94C0038BE496E40197F1F7C5
:1008C00080916A0180620E94C00383E592E00197F3
:1008D000F1F780916A0180620E94C003D5CFE1E008
:1008E00080916E018111E0E0E195F0E0E55AFE4F64
:1008F000848980680C94C00341E00E946D0381E00C
:1009000090E008951F920F920FB60F9211242F932B
:100910003F938F939F93AF93BF93809142019091A8
:100920004301A0914401B09145013091410123E080
:10093000230F2D3758F50196A11DB11D20934101BC
:100940008093420190934301A0934401B0934501E9
:100950008091460190914701A0914801B0914901D1
:100960000196A11DB11D8093460190934701A0936C
:100970004801B0934901BF91AF919F918F913F91F1
:100980002F910F900FBE0F901F90189526E8230F00
:100990000296A11DB11DD2CF1F920F920FB60F92DA
:1009A00011242F933F934F935F936F937F938F9374
:1009B0009F93AF93BF93EF93FF9380914F019091DB
:1009C0005001A0915101B0915201892B8A2B8B2BA0
:1009D000D1F190914A01E0914B01F0914C0180815D
:1009E0008927808380914F0190915001A0915101FE
:1009F000B0915201181619061A061B069CF4809134
:100A00004F0190915001A0915101B0915201019775
:100A1000A109B10980934F0190935001A093510116
:100A2000B0935201FF91EF91BF91AF919F918F9140
:100A30007F916F915F914F913F912F910F900FBEDA
:100A40000F901F901895809100010E94C002EACF7C
:100A5000789484B5826084BD84B5816084BD85B599
:100A6000826085BD85B5816085BD80916E008160A5
:100A700080936E001092810080918100826080934B
:100A8000810080918100816080938100809180004D
:100A90008160809380008091B10084608093B10078
:100AA0008091B00081608093B00080917A00846072
:100AB00080937A0080917A00826080937A0080919E
:100AC0007A00816080937A0080917A0080688093B8
:100AD0007A001092C10060E082E00E940D0160E0A7
:100AE00083E00E940D0161E08DE00E940D0161E054
:100AF0008AE00E940D0161E088E00E940D0160E043
:100B00008DE00E94DF0060E08AE00E94DF0088E064
:100B10000E94C00282E00E94CE038DE091E00E941C
:100B20001D03C0E0D0E011E082E00E94B6006C013D
:100B300083E00E94B6007C018091400181111BC0BE
:100B400021E0C216D10409F05EC01093400161E0BB
:100B50008DE00E94DF0060E08AE00E94DF0084E810
:100B600093E00E943E010E94C6030E946F048DE143
:100B700091E00E941D03809140018823F1F1CD286E
:100B8000E1F5EF28D1F50E949B024B015C0188EB57
:100B9000C82E8BE0D82EE12CF12C0E949B02681904
:100BA00079098A099B09683E734081059105A8F37C
:100BB00021E0C21AD108E108F10888EE880E83E02E
:100BC000981EA11CB11CC114D104E104F10429F741
:100BD0001092400160E08DE00E94DF0060E08AE05A
:100BE0000E94DF0088E00E94C0020E94C6030E94AB
:100BF0006F048DE091E00E941D03209709F494CFCB
:100C00000E94000091CF81E0E816F10409F0B3CF13
:100C10001093400160E08DE00E94DF0061E08AE017
:100C20000E94DF008CE291E00E943E010E94C60318
:100C30000E946F048EE291E09CCFEBE5F1E013821D
:100C4000128285E091E0918380838CE084838FEF32
:100C500085838BE0868385E0878386E0808787E0D5
:100C6000818789E082871386148615861686178603
:100C700081E00C94CE03A1E21A2EAA1BBB1BFD013E
:100C80000DC0AA1FBB1FEE1FFF1FA217B307E4076B
:100C9000F50720F0A21BB30BE40BF50B661F771FC3
:100CA000881F991F1A9469F76095709580959095A3
:100CB0009B01AC01BD01CF010895052E97FB1EF4E9
:100CC00000940E94740657FD07D00E943B0607FC63
:100CD00003D04EF40C9474065095409530952195B0
:100CE0003F4F4F4F5F4F0895909580957095619558
:100CF0007F4F8F4F9F4F0895A29FB001B39FC001B8
:100D0000A39F700D811D1124911DB29F700D811D37
:100D10001124911D0895EE0FFF1F0590F491E02D11
:060D20000994F894FFCFD6
:100D2600FF000000007C04EC021A03190341207640
:100D36006F732062757A7A6572732021004A4F5567
:100D46004555522031204741474E452021004A4F04
:100D5600554555522032204741474E452021000037
:00000001FF
