:100000000C9463000C948B000C948B000C948B006C
:100010000C948B000C948B000C948B000C94590660
:100020000C948B000C948B000C948B000C948B0024
:100030000C948B000C948B000C948B000C948B0014
:100040000C940F060C948B000C948B000C948B007A
:100050000C948B000C948B000C948B000C948B00F4
:100060000C948B000C948B000000000024002700EF
:100070002A000000000023002600290000000008DC
:10008000000201000003040700000000000000005F
:10009000010204081020408001020408102001021F
:1000A0000408102000000000250028002B00040494
:1000B0000404040404040202020202020303030310
:1000C000030302006C0811241FBECFEFD8E0DEBF8F
:1000D000CDBF11E0A0E0B1E0E2E5F6E102C005909D
:1000E0000D92A037B107D9F721E0A0E7B1E001C038
:1000F0001D92AC3AB207E1F710E0C3E6D0E004C0CD
:100100002197FE010E94120BC236D107C9F70E9447
:10011000B5060C94270B0C940000833081F028F472
:10012000813099F08230A9F008958730A9F08830A5
:10013000C9F08430B1F4809180008F7D03C080913C
:1001400080008F7780938000089584B58F7784BD79
:10015000089584B58F7DFBCF8091B0008F77809319
:10016000B00008958091B0008F7DF9CFCF93DF93D9
:10017000282F30E0F901E458FF4F8491F901E0574E
:10018000FF4FD491F901E255FF4FC491CC23A1F068
:1001900081110E948D00EC2FF0E0EE0FFF1FEE5852
:1001A000FF4FA591B491EC91ED2381E090E009F42B
:1001B00080E0DF91CF91089580E090E0FACF1F9327
:1001C000CF93DF93282F30E0F901E458FF4F84915B
:1001D000F901E057FF4FD491F901E255FF4FC49167
:1001E000CC23A9F0162F81110E948D00EC2FF0E096
:1001F000EE0FFF1FEC55FF4FA591B4918FB7F89408
:10020000EC91111108C0D095DE23DC938FBFDF91F4
:10021000CF911F910895DE2BF8CFCF93DF9390E01D
:10022000FC01E057FF4F249182559F4FFC018491C0
:100230008823C9F090E0880F991FFC01E859FF4F0F
:10024000A591B491FC01EC55FF4FC591D49161117A
:100250000DC09FB7F8948C91209582238C93888150
:10026000282328839FBFDF91CF910895623051F4F6
:100270009FB7F8943C91822F809583238C93E881DB
:100280002E2BEFCF8FB7F894EC912E2B2C938FBFA2
:10029000EACF4F925F926F927F928F929F92AF922E
:1002A000BF92CF92DF92EF92FF920F931F93CF9363
:1002B0008C014A015B0180910001883099F08F3FE9
:1002C00009F46FC0CF911F910F91FF90EF90DF90D5
:1002D000CF90BF90AF909F908F907F906F905F90E6
:1002E0004F900895E2ECF0E0C491C7FDEBCF61E0E0
:1002F00088E00E940D012801712C612CCC23E9F0CB
:10030000980150E040E0C23009F0BAC028013A013B
:1003100060E970ED83E090E00E94E80A69017A01EB
:1003200081E0C81AD108E108F1088FEFC816D1049E
:10033000E104F10409F00CF4DCC068E478EE81E03B
:1003400090E0A30192010E94E80A69017A0181E02C
:10035000C81AD108E108F108CC2309F4CCC0C23096
:1003600009F01BC18FEFC816D104E104F10409F0B4
:100370000CF41BC164E274EF80E090E0A3019201F1
:100380000E94E80A69017A0181E0C81AD108E108EF
:10039000F10885E09091B100987F892B8093B1009E
:1003A000C6C088E080930001E2ECF0E0C491CF3F4A
:1003B00009F488CFC13021F150F0C23009F43EC0B9
:1003C000C7FD80CF61E088E00E940D0199CF14BC89
:1003D00015BC84B5826084BD85B5816085BDE6EBC2
:1003E000F0E0E491F0E0EE0FFF1FEC55FF4F859138
:1003F0009491E8E9F0E0E491E0938701C0E077CFE1
:10040000109280001092810080918100886080931A
:10041000810080918100816080938100E6EBF0E0B3
:10042000E491F0E0EE0FFF1FEC55FF4F85919491A2
:10043000E8E9F0E0E491E093860159CF1092B00032
:100440001092B1008091B00082608093B0008091E2
:10045000B10081608093B100E6EBF0E0E491F0E060
:10046000EE0FFF1FEC55FF4F8591949190938501FE
:1004700080938401E8E9F0E0E491E093830137CFD1
:1004800060E072E18AE790E00E94E80A69017A017F
:1004900081E0C81AD108E108F108C13009F047C06D
:1004A00080918100887F81608093810040C0D092DC
:1004B0008900C092880020938C0130938D01409375
:1004C0008E0150938F0180916F00826080936F0046
:1004D000F9CEC092B30020938801309389014093F4
:1004E0008A0150938B01809170008260809370002C
:1004F000E9CE83E04FCF93E08FEFC816D104E1043B
:10050000F10489F084F062E17AE780E090E0A301F1
:1005100092010E94E80A69017A0181E0C81AD108B3
:10052000E108F10894E085B5887F892B85BDD80165
:10053000AA0FBB1FA50194010E94070B28EE33E010
:1005400040E050E00E94C60AC13009F4B0CFC2308A
:1005500009F4BFCFC111B6CEC7BC20939001309330
:100560009101409392015093930180916E008260BB
:1005700080936E00A7CE62E17AE780E090E0A3016D
:1005800092010E94E80A69017A0181E0C81AD10843
:10059000E108F108C1E086E0FDCE8FEFC816D10476
:1005A000E104F10409F03CF7C1E084E0F3CE3FB789
:1005B000F89480917F0190918001A0918101B09188
:1005C000820126B5A89B05C02F3F19F00196A11DF9
:1005D000B11D3FBFBA2FA92F982F8827BC01CD018D
:1005E000620F711D811D911D42E0660F771F881FEC
:1005F000991F4A95D1F708958F929F92AF92BF921B
:10060000CF92DF92EF92FF924B015C010E94D702E2
:100610006B017C010E94D7026C197D098E099F092C
:10062000683E734081059105A8F321E0821A910884
:10063000A108B10888EEC80E83E0D81EE11CF11CA9
:1006400081149104A104B10429F7FF90EF90DF9089
:10065000CF90BF90AF909F908F90089590910001A0
:1006600089130BC0E2ECF0E0E4919FEF909300015E
:10067000E13049F028F0E23061F060E00C94DF00F6
:1006800010926E00FACF90916F009D7F90936F0053
:10069000F4CF909170009D7F9093700091E09093C3
:1006A000B0009091B100987F94609093B100109247
:1006B000B300E3CFAF92BF92CF92DF92EF92FF925F
:1006C0000F931F93CF93DF936C017B018B01040F7A
:1006D000151FEB015E01AE18BF08C017D10759F016
:1006E0006991D601ED91FC910190F081E02DC60158
:1006F0000995892B79F7C501DF91CF911F910F9152
:10070000FF90EF90DF90CF90BF90AF900895089545
:1007100090E080E00895FC0101900020E9F7319716
:10072000AF01481B590BBC0184E991E00C945A03BA
:100730008F929F92AF92BF920F931F93CF93DF93AD
:10074000CDB7DEB7A1970FB6F894DEBF0FBECDBF11
:1007500019A2423008F44AE08E010F5D1F4F842E2B
:10076000912CB12CA12CA50194010E94C60AE62F60
:10077000B901CA01EA30F4F4E05DD801EE938D01CD
:10078000232B242B252B79F790E080E0109719F08C
:10079000CD010E948B03A1960FB6F894DEBF0FBE69
:1007A000CDBFDF91CF911F910F91BF90AF909F90E0
:1007B0008F900895E95CE1CF0C948B03CF93DF9386
:1007C000EC0160E08E810E94DF0061E08E810E947A
:1007D000DF0060E08E810E94DF008BE891E00197EE
:1007E000F1F7DF91CF910895CF92DF92EF92FF92D0
:1007F0000F931F93CF93DF936C017C0187E0E80E8A
:10080000F11CD0E0C0E0062F10E0B8010C2E02C0B1
:10081000759567950A94E2F76170F70181917F0100
:100820000E94DF002196C430D10579F7C601DF911F
:10083000CF911F910F91FF90EF90DF90CF900C948C
:10084000DE03CF92DF92EF92FF920F931F93CF932D
:10085000DF93EC01F62E642F8C810E94DF008D81E6
:100860008F3F19F060E00E94DF000F2D10E08F85B0
:1008700084FF25C06E0187E0C80ED11CF12CE12C4D
:10088000B8010E2C02C0759567950A94E2F7617065
:10089000F60181916F010E94DF00FFEFEF1AFF0A5E
:1008A00088E0E816F10461F7CE01DF91CF911F9146
:1008B0000F91FF90EF90DF90CF900C94DE03B80182
:1008C00084E0759567958A95E1F7CE010E94F4035F
:1008D0006F2DCE01DF91CF911F910F91FF90EF907F
:1008E000DF90CF900C94F40340E0682F84E991E00E
:1008F0000C94210481E00E9474048BE39FE1019732
:10090000F1F70895CF93DF93823029F49091A301FA
:1009100098609093A3018093A7011092A80180E4AE
:100920008093A90180E18093AA0180E58093AB01C7
:1009300061E0809198010E940D01809199018F3FA3
:1009400019F061E00E940D0161E080919A010E941E
:100950000D01C4E9D1E09E01245931408091A301E9
:1009600084FD0BC084E090E021962817390744F4F9
:1009700061E08E810E940D01EECF88E090E0F4CF1F
:100980008BE39DE00197F1F760E0809198010E9470
:10099000DF0060E080919A010E94DF008091990160
:1009A0008F3F19F060E00E94DF008091A30184FD79
:1009B00034C063E084E991E00E94F403CBE4D6E420
:1009C000CE010197F1F763E084E991E00E94F4031E
:1009D0002197F1F763E084E991E00E94F40383E555
:1009E00092E00197F1F762E084E991E00E94F4035C
:1009F0008091A30180620E94740484E08093A4012A
:100A00008CE00E9474040E947A0482E08093A50125
:100A100086E0DF91CF910C94740480620E9474048C
:100A20008BE496E40197F1F78091A30180620E9424
:100A3000740483E592E00197F1F78091A30180624D
:100A40000E947404D5CF9091A701891710F08FEF01
:100A5000890FE82FF0E0EC56FE4F848980680C94F3
:100A6000740441E00E94210481E090E008954F92D7
:100A70005F926F927F928F929F92AF92BF92CF922E
:100A8000DF92EF92FF92CF93DF936B017C01AC0179
:100A90009B010E94C10A882391F08DE091E0DF91D3
:100AA000CF91FF90EF90DF90CF90BF90AF909F904D
:100AB0008F907F906F905F904F900C948B034601C6
:100AC0005701E894B7F82FEF3FEF4FE75FE7C50115
:100AD000B4010E94C10A81110DC02FEF3FEF4FE713
:100AE0005FE7C501B4010E94F70818161CF481E104
:100AF00091E0D5CF2FEF3FEF4FE75FE4C701B6019D
:100B00000E944F0A18161CF485E191E0C8CF2FEF20
:100B10003FEF4FE75FECC701B6010E94F70887FD82
:100B2000F3CF20E030E0A901C701B6010E94F70829
:100B3000D0E0C0E087FF0CC041E06DE284E991E0C5
:100B40000E942104F7FAF094F7F8F094C1E0D0E0A5
:100B50002AE037ED43EA5BE3C701B6010E948B0848
:100B60004B015C010E946E096B017C010E949D0992
:100B70009B01AC01C501B4010E948A084B015C01D4
:100B80004AE0C701B6010E9498037C01EC0EFD1EED
:100B900041E06EE284E991E00E9421048FEFE81ABF
:100BA000F80A20E030E040E251E4C501B4010E94BF
:100BB000540A2B013C010E946E094B01B12CA12C5F
:100BC0004AE0C501B4010E949803E80EF91EC50170
:100BD000B4010E949D099B01AC01C301B2010E94B6
:100BE0008A0820E030E040E251E40E94540A0E946A
:100BF0006E0990E080E04AE00E9498038E0D9F1DF0
:100C0000DF91CF91FF90EF90DF90CF90BF90AF90AA
:100C10009F908F907F906F905F904F9008951F925C
:100C20000F920FB60F9211242F933F938F939F93A0
:100C3000AF93BF9380917B0190917C01A0917D0146
:100C4000B0917E0130917A0123E0230F2D3758F5C2
:100C50000196A11DB11D20937A0180937B01909391
:100C60007C01A0937D01B0937E0180917F019091E2
:100C70008001A0918101B09182010196A11DB11D59
:100C800080937F0190938001A0938101B0938201B2
:100C9000BF91AF919F918F913F912F910F900FBE78
:100CA0000F901F90189526E8230F0296A11DB11DE5
:100CB000D2CF1F920F920FB60F9211242F933F9312
:100CC0004F935F936F937F938F939F93AF93BF9354
:100CD000EF93FF938091880190918901A0918A01FF
:100CE000B0918B01892B8A2B8B2BD1F190918301B1
:100CF000E0918401F0918501808189278083809132
:100D0000880190918901A0918A01B0918B011816F8
:100D100019061A061B069CF480918801909189019E
:100D2000A0918A01B0918B010197A109B10980932B
:100D3000880190938901A0938A01B0938B01FF9160
:100D4000EF91BF91AF919F918F917F916F915F9143
:100D50004F913F912F910F900FBE0F901F901895BC
:100D6000809100010E942E03EACF789484B58260BE
:100D700084BD84B5816084BD85B5826085BD85B53F
:100D8000816085BD80916E00816080936E001092BD
:100D90008100809181008260809381008091810038
:100DA00081608093810080918000816080938000C9
:100DB0008091B10084608093B1008091B000816027
:100DC0008093B00080917A00846080937A00809153
:100DD0007A00826080937A0080917A0081608093AB
:100DE0007A0080917A00806880937A001092C10026
:100DF00060E082E00E940D0160E083E00E940D014E
:100E000061E08DE00E940D0161E08AE00E940D0129
:100E100061E088E00E940D0162E08EE00E940D0119
:100E200061E084E00E940D0160E084E00E94DF0048
:100E300060E08DE00E94DF0060E08AE00E94DF0059
:100E400088E00E942E0382E00E94820480E00E94DB
:100E5000230589E191E00E94DC0381E00E942305E3
:100E600088E291E00E94DC0380E0C82E80E0D82E6A
:100E7000C1E082E00E94B6007C0183E00E94B600DF
:100E80008C018091790181113FC08091780181119D
:100E9000A1C08EE00E94B600892B09F09BC00E9481
:100EA0007A0480E00E94230589E391E00E94DC033C
:100EB00044E650E060E070E080EB94E00E9449017D
:100EC00061E084E00E94DF002FB7F89480917B01FD
:100ED00090917C01A0917D01B0917E012FBF809304
:100EE000740190937501A0937601B0937701C0933C
:100EF00079016CE271E080E090E00E94FC02809158
:100F00007901882309F466C080917801811162C05B
:100F100081E0E816F10409F095C0C09378011092C1
:100F2000790160E084E00E94DF002FB7F8946091BF
:100F30007B0170917C0180917D0190917E012FBF9A
:100F40008090740190907501A0907601B090770127
:100F5000681979098A099B090E949D0920E030E0FF
:100F60004AE754E40E94FC08609370017093710199
:100F7000809372019093730161E08DE00E94DF0025
:100F800060E08AE00E94DF0040E951E060E070E04C
:100F900084E893E00E9449010E947A0480E00E9464
:100FA000230583E491E00E94DC0381E00E94230595
:100FB00084E591E00E94DC03609170017091710101
:100FC00080917201909173010E9437058CE591E048
:100FD0000E94DC0380917801882369F1EF2859F59C
:100FE000012B49F560EA7FE080E090E00E94FC027E
:100FF000109278011092790160E084E00E94DF0095
:1010000060E08DE00E94DF0060E08AE00E94DF0087
:1010100088E00E942E030E947A0480E00E9423054B
:1010200089E191E00E94DC0381E00E94230588E2CF
:1010300091E00E94DC03C114D10409F41ACF0E948C
:10104000000017CF0130110529F6C09378011092E6
:10105000790160E084E00E94DF002FB7F89460918E
:101060007B0170917C0180917D0190917E012FBF69
:101070008090740190907501A0907601B0907701F6
:10108000681979098A099B090E949D0920E030E0CE
:101090004AE754E40E94FC08609370017093710168
:1010A000809372019093730160E08DE00E94DF00F5
:1010B00061E08AE00E94DF0040E951E060E070E01A
:1010C0008CE291E00E9449010E947A0480E00E9433
:1010D00023058FE591E067CFE4E9F1E01382128206
:1010E00085E091E0918380838CE084838FEF85831A
:1010F0008BE0868385E0878386E0808787E0818731
:1011000089E082871386148615861686178681E005
:101110000C9482045058BB27AA270E94A2080C9462
:10112000150A0E94070A38F00E940E0A20F039F4CE
:101130009F3F19F426F40C94040A0EF4E095E7FBA3
:101140000C94FE09E92F0E94260A58F3BA17620789
:1011500073078407950720F079F4A6F50C94480AE4
:101160000EF4E0950B2EBA2FA02D0B01B9019001C2
:101170000C01CA01A0011124FF27591B99F0593F06
:1011800050F4503E68F11A16F040A22F232F342F4E
:101190004427585FF3CF469537952795A795F0409C
:1011A0005395C9F77EF41F16BA0B620B730B840BB1
:1011B000BAF09150A1F0FF0FBB1F661F771F881F69
:1011C000C2F70EC0BA0F621F731F841F48F48795C1
:1011D00077956795B795F7959E3F08F0B0CF9395B3
:1011E000880F08F09927EE0F9795879508950E942C
:1011F000DA0908F481E008950E9410090C94150A98
:101200000E940E0A58F00E94070A40F029F45F3F3E
:1012100029F00C94FE0951110C94490A0C94040A0B
:101220000E94260A68F39923B1F3552391F3951B85
:10123000550BBB27AA2762177307840738F09F5FF7
:101240005F4F220F331F441FAA1FA9F335D00E2E64
:101250003AF0E0E832D091505040E695001CCAF7D1
:101260002BD0FE2F29D0660F771F881FBB1F261794
:1012700037074807AB07B0E809F0BB0B802DBF016B
:10128000FF2793585F4F3AF09E3F510578F00C943A
:10129000FE090C94490A5F3FE4F3983ED4F3869527
:1012A00077956795B795F7959F5FC9F7880F911D5B
:1012B0009695879597F90895E1E0660F771F881F47
:1012C000BB1F621773078407BA0720F0621B730BFA
:1012D000840BBA0BEE1F88F7E09508950E942E0A42
:1012E00088F09F5798F0B92F9927B751B0F0E1F0E7
:1012F000660F771F881F991F1AF0BA95C9F714C097
:10130000B13091F00E94480AB1E008950C94480A67
:10131000672F782F8827B85F39F0B93FCCF38695CF
:1013200077956795B395D9F73EF49095809570952C
:1013300061957F4F8F4F9F4F0895E89409C097FBA9
:101340003EF490958095709561957F4F8F4F9F4F9C
:101350009923A9F0F92F96E9BB279395F6958795E0
:1013600077956795B795F111F8CFFAF4BB0F11F4A3
:1013700060FF1BC06F5F7F4F8F4F9F4F16C088234A
:1013800011F096E911C0772321F09EE8872F762F80
:1013900005C0662371F096E8862F70E060E02AF0C1
:1013A0009A95660F771F881FDAF7880F96958795AD
:1013B00097F90895990F0008550FAA0BE0E8FEEF82
:1013C00016161706E807F907C0F012161306E40709
:1013D000F50798F0621B730B840B950B39F40A2602
:1013E00061F0232B242B252B21F408950A2609F4E0
:1013F000A140A6958FEF811D811D089597F99F67E4
:1014000080E870E060E008959FEF80EC089500248C
:101410000A941616170618060906089500240A9459
:1014200012161306140605060895092E0394000CDF
:1014300011F4882352F0BB0F40F4BF2B11F460FF6E
:1014400004C06F5F7F4F8F4F9F4F089557FD905897
:10145000440F551F59F05F3F71F04795880F97FB78
:10146000991F61F09F3F79F0879508951216130632
:101470001406551FF2CF4695F1DF08C01616170661
:101480001806991FF1CF8695710561050894089596
:10149000E894BB2766277727CB0197F908950E9428
:1014A000DA0908F48FEF08950E94670A0C94150A70
:1014B0000E94070A38F00E940E0A20F0952311F0CE
:1014C0000C94FE090C94040A11240C94490A0E94FD
:1014D000260A70F3959FC1F3950F50E0551F629F48
:1014E000F001729FBB27F00DB11D639FAA27F00D7D
:1014F000B11DAA1F649F6627B00DA11D661F829FA4
:101500002227B00DA11D621F739FB00DA11D621F88
:10151000839FA00D611D221F749F3327A00D611DA5
:10152000231F849F600D211D822F762F6A2F112487
:101530009F5750409AF0F1F088234AF0EE0FFF1FBA
:10154000BB1F661F771F881F91505040A9F79E3F11
:10155000510580F00C94FE090C94490A5F3FE4F3B6
:10156000983ED4F3869577956795B795F795E79567
:101570009F5FC1F7FE2B880F911D9695879597F970
:1015800008950E94DA09880B990B0895A1E21A2E9A
:10159000AA1BBB1BFD010DC0AA1FBB1FEE1FFF1F17
:1015A000A217B307E407F50720F0A21BB30BE40B67
:1015B000F50B661F771F881F991F1A9469F76095AE
:1015C0007095809590959B01AC01BD01CF01089568
:1015D000052E97FB1EF400940E94FF0A57FD07D0CA
:1015E0000E94C60A07FC03D04EF40C94FF0A5095E3
:1015F0004095309521953F4F4F4F5F4F08959095FF
:101600008095709561957F4F8F4F9F4F08950E94F1
:10161000180BA59F900DB49F900DA49F800D911D58
:1016200011240895EE0FFF1F0590F491E02D099409
:10163000A29FB001B39FC001A39F700D811D112413
:10164000911DB29F700D811D1124911D0895F89474
:02165000FFCFCA
:10165200FF0000000031055A03880387036E616EA4
:1016620000696E66006F766600506F73657A206C53
:101672006120717565732E005072657373657A20EF
:1016820053544152542E2E2E004A4F55455A202172
:101692002121004A4F554555522031204741474E9E
:1016A2004520210054656D70733A20002073004A72
:1016B2004F554555522032204741474E4520210083
:00000001FF
