:100000000C9462000C947F000C947F000C947F0091
:100010000C947F000C947F000C947F000C947F0163
:100020000C947F000C947F000C947F000C947F0054
:100030000C947F000C947F000C947F000C947F0044
:100040000C9435010C947F000C947F000C947F007D
:100050000C947F000C947F000C947F000C947F0024
:100060000C947F000C947F00000000002300260009
:1000700029000200000000240027002A00000000E0
:1000800000250028002B00040404040404040402D6
:100090000202020202030303030303010204081025
:1000A00020408001020408102001020408102000F2
:1000B0000000080002010000030407000000000027
:1000C0000000000011241FBECFEFD8E0DEBFCDBF7F
:1000D00011E0A0E0B1E0E2E9F6E002C005900D9287
:1000E000A230B107D9F721E0A2E0B1E001C01D9232
:1000F000AC31B207E1F70E94DB010C9447030C948A
:100100000000833081F028F4813099F08230A9F02A
:1001100008958730A9F08830C9F08430B1F4809117
:1001200080008F7D03C0809180008F778093800056
:10013000089584B58F7784BD089584B58F7DFBCFF6
:100140008091B0008F778093B00008958091B000C7
:100150008F7DF9CF1F93CF93DF93282F30E0F901E4
:10016000E155FF4F8491F901E556FF4FD491F90114
:10017000E957FF4FC491CC23A9F0162F81110E949B
:100180008100EC2FF0E0EE0FFF1FE358FF4FA59129
:10019000B4918FB7F894EC91111108C0D095DE237B
:1001A000DC938FBFDF91CF911F910895DE2BF8CFA5
:1001B000CF93DF9390E0FC01E556FF4F24918957E0
:1001C0009F4FFC0184918823D1F090E0880F991F04
:1001D000FC01ED58FF4FA591B491FC01E358FF4F8E
:1001E000C591D491623071F49FB7F8943C91822FFD
:1001F000809583238C93E8812E2B28839FBFDF91EA
:10020000CF9108958FB7F894EC912E2B2C938FBF3C
:10021000F6CF9091000189130BC0E2E7F0E0E49182
:100220009FEF90930001E13049F028F0E23061F057
:1002300060E00C94AA0010926E00FACF90916F00CB
:100240009D7F90936F00F4CF909170009D7F90936D
:10025000700091E09093B0009091B100987F94600D
:100260009093B1001092B300E3CF1F920F920FB69C
:100270000F9211242F933F938F939F93AF93BF932C
:100280008091180190911901A0911A01B0911B0160
:100290003091170123E0230F2D3758F50196A11D4A
:1002A000B11D209317018093180190931901A09319
:1002B0001A01B0931B018091130190911401A09138
:1002C0001501B09116010196A11DB11D8093130176
:1002D00090931401A0931501B0931601BF91AF91B3
:1002E0009F918F913F912F910F900FBE0F901F9074
:1002F000189526E8230F0296A11DB11DD2CF1F929B
:100300000F920FB60F9211242F933F934F935F9349
:100310006F937F938F939F93AF93BF93EF93FF93CD
:100320008091070190910801A0910901B0910A0103
:10033000892B8A2B8B2BD1F190910201E091030143
:10034000F091040180818927808380910701909139
:100350000801A0910901B0910A01181619061A06A0
:100360001B069CF48091070190910801A09109015E
:10037000B0910A010197A109B109809307019093F7
:100380000801A0930901B0930A01FF91EF91BF9179
:10039000AF919F918F917F916F915F914F913F911D
:1003A0002F910F900FBE0F901F9018958091000114
:1003B0000E940901EACF789484B5826084BD84B537
:1003C000816084BD85B5826085BD85B5816085BD50
:1003D00080916E00816080936E0010928100809108
:1003E0008100826080938100809181008160809390
:1003F0008100809180008160809380008091B100B5
:1004000084608093B1008091B00081608093B000DF
:1004100080917A00846080937A0080917A00826073
:1004200080937A0080917A00816080937A00809135
:100430007A00806880937A001092C10062E082E0C6
:100440000E94D80061E084E00E94D80061E088E06A
:100450000E94D80061E08DE00E94D80060E08DE04D
:100460000E94AA005DE9252E50E0352E64E0C62EDC
:1004700067E4D62E72E7E72E70E0F72EEFE84E2EF7
:10048000E0E05E2E03EA10E088248A94982C540160
:1004900040E0642E40E0742EE1EBF0E08491F10145
:1004A000C491E9E8F0E0D491DD23F9F081110E94D4
:1004B0008100ED2FF0E0EE0FFF1FE859FF4FA591EF
:1004C000B4918C918C2389F060E084E00E94AA00B2
:1004D00088E00E94090160E08DE00E94AA0061149A
:1004E0007104D1F20E940000D3CF61E084E00E9449
:1004F000AA0080910001883029F5F701C491C7FD59
:10050000BCC061E088E00E94D800CC2309F488C018
:10051000C23009F099C08091B100887F85608093D6
:10052000B1008DE88093B30080920701909208019A
:10053000A0920901B0920A018091700082608093BC
:1005400070009BC08F3F09F098C088E08093000145
:10055000F701C491CF3F09F490C0C13019F150F0B8
:10056000C23009F43CC0C7FD88C061E088E00E9449
:10057000D800CECF14BC15BC84B5826084BD85B5CF
:10058000816085BDF2018491E82FF0E0EE0FFF1F3E
:10059000E358FF4F85919491F8018491809306016F
:1005A000C0E0AFCF10928000109281008091810056
:1005B00088608093810080918100816080938100B8
:1005C000F2018491E82FF0E0EE0FFF1FE358FF4F98
:1005D00085919491F80184918093050192CF1092B6
:1005E000B0001092B1008091B00082608093B000A2
:1005F0008091B10081608093B100F2018491E82F75
:10060000F0E0EE0FFF1FE358FF4F85919491909318
:10061000040180930301F80184918093020171CF5A
:1006200085B5887F846085BD86E487BD80920F0193
:1006300090921001A0921101B092120180916E006F
:10064000826080936E0019C0C130C9F4809181002E
:10065000887F816080938100D0928900C092880059
:1006600080920B0190920C01A0920D01B0920E01AC
:1006700080916F00826080936F0061E02DCFC23067
:1006800021F0C111FACF84E0D0CF84E04BCFF894B1
:02069000FFCF9A
:02069200FF0067
:00000001FF
